:100000000C9462000C94D1040C94AA040C948A0001
:100010000C948A000C948A000C948A000C948A0038
:100020000C948A000C948A000C948A000C948A0028
:100030000C948A000C948A000C948A000C948A0018
:100040000C9460040C948A000C941E050C94F80423
:100050000C948A000C948A000C948A000C948A00F8
:100060000C948A000C948A000000000024002700F1
:100070002A0000000000250028002B0000000000DE
:1000800023002600290004040404040404040202DA
:100090000202020203030303030301020408102007
:1000A0004080010204081020010204081020000012
:1000B0000008000201000003040700000000000027
:1000C0000000390711241FBECFEFD8E0DEBFCDBF3F
:1000D00011E0A0E0B1E0E8E7F2E102C005900D9286
:1000E000AA31B107D9F721E0AAE1B1E001C01D9220
:1000F000A03DB207E1F710E0C2E6D0E004C02197CE
:10010000FE010E949E07C136D107C9F70E94500523
:100110000C943A090C9400008230C8F4E82FF0E007
:10012000EE0FFF1FEC5FFE4F71836083813041F063
:10013000809169008C7F816080936900E89A0895BE
:1001400080916900837F846080936900E99A0895B3
:10015000833081F028F4813099F08230A9F008953D
:100160008730A9F08830C9F08430B1F480918000E4
:100170008F7D03C0809180008F77809380000895E9
:1001800084B58F7784BD089584B58F7DFBCF809132
:10019000B0008F778093B00008958091B0008F7D7C
:1001A000F9CFCF93DF93282F30E0F901E255FF4FCD
:1001B0008491F901E656FF4FD491F901EA57FF4FB8
:1001C000C491CC23A1F081110E94A800EC2FF0E093
:1001D000EE0FFF1FE458FF4FA591B491EC91ED2372
:1001E00081E090E009F480E0DF91CF91089580E014
:1001F00090E0FACF1F93CF93DF93282F30E0F901DF
:10020000E255FF4F8491F901E656FF4FD491F90171
:10021000EA57FF4FC491CC23A9F0162F81110E94F9
:10022000A800EC2FF0E0EE0FFF1FEE58FF4FA59156
:10023000B4918FB7F894EC91111108C0D095DE23DA
:10024000DC938FBFDF91CF911F910895DE2BF8CF04
:10025000CF93DF9390E0FC01E656FF4F24918A573D
:100260009F4FFC0184918823D1F090E0880F991F63
:10027000FC01E859FF4FA591B491FC01EE58FF4FE6
:10028000C591D49161110EC09FB7F8948C91E22F63
:10029000E0958E238C932881E223E8839FBFDF9132
:1002A000CF9108958FB7F894EC91E22BEC938FBF28
:1002B000F6CF8E3008F08E508770806480937C007B
:1002C00080917A00806480937A0080917A0086FD24
:1002D000FCCF809178009091790008953FB7F89411
:1002E00080912F0190913001A0913101B0913201A4
:1002F00026B5A89B05C02F3F19F00196A11DB11D81
:100300003FBFBA2FA92F982F8827BC01CD01620FBC
:10031000711D811D911D42E0660F771F881F991F77
:100320004A95D1F708958F929F92AF92BF92CF9244
:10033000DF92EF92FF924B015C010E946E016B0114
:100340007C010E946E016C197D098E099F09683E2F
:10035000734081059105A8F321E0821A9108A10854
:10036000B10888EEC80E83E0D81EE11CF11C811490
:100370009104A104B10429F7FF90EF90DF90CF9092
:10038000BF90AF909F908F9008952FB7F894609191
:100390002B0170912C0180912D0190912E012FBF86
:1003A00008950895AF92BF92CF92DF92EF92FF929D
:1003B0000F931F93CF93DF936C017B018B01040F8D
:1003C000151FEB015E01AE18BF08C017D10759F029
:1003D0006991D601ED91FC910190F081E02DC6016B
:1003E0000995892B79F7C501DF91CF911F910F9165
:1003F000FF90EF90DF90CF90BF90AF900895FC01F9
:10040000538D448D252F30E0842F90E0821B930B79
:10041000541710F0CF96089501970895FC01918D1F
:10042000828D981761F0A28DAE0FBF2FB11D5D9622
:100430008C91928D9F5F9F73928F90E008958FEFC4
:100440009FEF0895FC01918D828D981731F0828D78
:10045000E80FF11D858D90E008958FEF9FEF0895CF
:10046000FC01918D228D892F90E0805C9F4F821B33
:1004700091098F739927089583E391E00E943002D8
:1004800021E0892B09F420E0822F089580E090E09C
:10049000892B29F00E943C0281110C9400000895E0
:1004A000FC01A48DA80FB92FB11DA35ABF4F2C91E9
:1004B000848D90E001968F739927848FA689B789E0
:1004C0002C93A089B1898C91837080648C93938DD7
:1004D000848D981306C00288F389E02D80818F7D7A
:1004E00080830895EF92FF920F931F93CF93DF9332
:1004F000EC0181E0888F9B8D8C8D98131AC0E88960
:10050000F989808185FF15C09FB7F894EE89FF892E
:100510006083E889F98980818370806480839FBFCC
:1005200081E090E0DF91CF911F910F91FF90EF90CC
:100530000895F62E0B8D10E00F5F1F4F0F731127DC
:10054000E02E8C8D8E110CC00FB607FCFACFE88917
:10055000F989808185FFF5CFCE010E945002F1CF4D
:10056000EB8DEC0FFD2FF11DE35AFF4FF0829FB78B
:10057000F8940B8FEA89FB8980818062CFCFCF937B
:10058000DF93EC01888D8823B9F0AA89BB89E889BB
:10059000F9898C9185FD03C0808186FD0DC00FB661
:1005A00007FCF7CF8C9185FFF2CF808185FFEDCFDF
:1005B000CE010E945002E9CFDF91CF9108951F93A1
:1005C000CF93DF93EC0118818AE290E00E946607E6
:1005D000181729F0612F8AE290E00E946E071981B6
:1005E0008BE290E00E946607181729F0612F8BE2DA
:1005F00090E00E946E07CE01DF91CF911F91089588
:100600008F929F92AF92BF920F931F93CF93DF93DE
:10061000CDB7DEB7A1970FB6F894DEBF0FBECDBF42
:1006200019A2423008F44AE08E010F5D1F4F842E5C
:10063000912CB12CA12CA50194010E947C07E62FDE
:10064000B901CA01EA3044F5E05DD801EE938D01AD
:10065000232B242B252B79F790E080E0109769F06D
:10066000FD0101900020E9F73197AF014A1B5B0BB8
:10067000BD0183E391E00E94D201A1960FB6F894E8
:10068000DEBF0FBECDBFDF91CF911F910F91BF9005
:10069000AF909F908F900895E95CD7CFCF92DF9273
:1006A000EF92FF92CF93DF936C01990FEE08FF0852
:1006B000F7FE19C06DE283E391E00E947202EC0143
:1006C00066277727CB016C197D098E099F094AE0BF
:1006D0000E9400038C0F9D1FDF91CF91FF90EF9040
:1006E000DF90CF9008954AE0C701B601DF91CF9126
:1006F000FF90EF90DF90CF900C9400038091020167
:10070000909103010E94D100209124013091250194
:10071000892B09F445C082E090E02130310509F4CD
:1007200045C084E090E02330310509F43FC086E005
:1007300090E028303105D1F12930310509F044C06D
:1007400080911A0190911B01019690931B01809357
:100750001A01109225011092240110922601109284
:100760002701109228011092290180911E01909179
:100770001F01181619067CF4019790931F018093AE
:100780001E0180911E0190911F010E944E038EE177
:1007900091E00C94DF0210921F0110921E01F1CF24
:1007A000C9018D7F892B89F481E090E09093250128
:1007B000809324010E94C501609326017093270154
:1007C0008093280190932901089583E090E02430DC
:1007D000310561F388E090E02630310539F32730A8
:1007E000310591F789E090E0E1CF8091000190918F
:1007F00001010E94D1002091240130912501892B13
:10080000C1F181E090E02330310509F441C024308A
:10081000310521F580911C0190911D010196909365
:100820001D0180931C011092250110922401109249
:10083000260110922701109228011092290180911F
:100840001E0190911F01019690931F0180931E013C
:100850000E944E038EE191E00C94DF0287E090E06D
:1008600026303105A9F089E090E02830310581F08B
:10087000089583E090E02130310551F084E090E06C
:100880002230310529F02115310589F486E090E008
:1008900090932501809324010E94C5016093260155
:1008A000709327018093280190932901E1CF27308D
:1008B000310561F329303105D9F688E090E0E8CFC1
:1008C0001F920F920FB60F9211242F933F938F9385
:1008D0009F93AF93BF9380912B0190912C01A09196
:1008E0002D01B0912E0130912A0123E0230F2D37E5
:1008F00058F50196A11DB11D20932A0180932B016B
:1009000090932C01A0932D01B0932E0180912F0183
:1009100090913001A0913101B09132010196A11D59
:10092000B11D80932F0190933001A0933101B093BA
:100930003201BF91AF919F918F913F912F910F9075
:100940000FBE0F901F90189526E8230F0296A11D49
:10095000B11DD2CF1F920F920FB60F9211242F9379
:100960003F934F935F936F937F938F939F93AF9337
:10097000BF93EF93FF93E0910601F0910701099572
:10098000FF91EF91BF91AF919F918F917F916F9167
:100990005F914F913F912F910F900FBE0F901F903D
:1009A00018951F920F920FB60F9211242F933F9319
:1009B0004F935F936F937F938F939F93AF93BF9367
:1009C000EF93FF93E0910401F09105010995FF91E8
:1009D000EF91BF91AF919F918F917F916F915F91B7
:1009E0004F913F912F910F900FBE0F901F90189530
:1009F0001F920F920FB60F9211242F933F934F9394
:100A00005F936F937F938F939F93AF93BF93EF9376
:100A1000FF9383E391E00E945002FF91EF91BF9119
:100A2000AF919F918F917F916F915F914F913F9186
:100A30002F910F900FBE0F901F9018951F920F923D
:100A40000FB60F9211242F938F939F93EF93FF93E1
:100A5000E0914301F09144018081E0914901F091DE
:100A60004A0182FD1BC0908180914C018F5F8F7382
:100A700020914D01821741F0E0914C01F0E0ED5CD6
:100A8000FE4F958F80934C01FF91EF919F918F9135
:100A90002F910F900FBE0F901F9018958081F4CF6B
:100AA000CF93DF9300D0CDB7DEB7789484B5826062
:100AB00084BD84B5816084BD85B5826085BD85B502
:100AC000816085BD80916E00816080936E00109280
:100AD00081008091810082608093810080918100FB
:100AE000816080938100809180008160809380008C
:100AF0008091B10084608093B1008091B0008160EA
:100B00008093B00080917A00846080937A00809115
:100B10007A00826080937A0080917A00816080936D
:100B20007A0080917A00806880937A001092C100E8
:100B3000E0914301F091440182E08083E0913F0124
:100B4000F09140011082E0914101F09142018FEC5F
:100B5000808310924B01E0914701F091480186E0BB
:100B60008083E0914501F09146018081806180831E
:100B7000E0914501F0914601808188608083E09199
:100B80004501F0914601808180688083E0914501B4
:100B9000F091460180818F7D808380910201909148
:100BA000030160E00E942801809100019091010101
:100BB00060E00E94280161E086E00E94280161E077
:100BC00087E00E94280161E086E00E94FA0061E06F
:100BD00087E00E94FA008091020190910301029740
:100BE00009F444C08091020190910301039709F434
:100BF0003FC08FEF6EE773E00E948C008091000190
:100C0000909101010297B1F1809100019091010151
:100C1000039791F18FEF65EF73E00E948C0061E024
:100C20008DE00E942801109225011092240110925B
:100C30001D0110921C0110921B0110921A0182E1F9
:100C40000E945901069734F01A821982CE0101964A
:100C50000E94DF0282E10E94590106977CF064EF56
:100C600071E080E090E00E949301F4CF80E0C2CF79
:100C700081E0C0CF80E0CFCF81E0CDCF10921F01C7
:100C800010921E018AE290E00E94660780931E0186
:100C90008BE290E00E94660780931F0180911E0105
:100CA00090911F010E944E0310922601109227017D
:100CB00010922801109229010E94C5016093200121
:100CC00070932101809322019093230100E010E0B2
:100CD0008BE0E82EF12C8EE00E94590165E070E077
:100CE00080E090E00E9493018EE00E945901BC01D7
:100CF000990F880B990B0E941D0820E030EC4FE7FC
:100D000054E40E94A90720E030E040EA50E40E9449
:100D1000CD082DEC3CEC4CE45DE30E94A40760E0C0
:100D200087FF61E086E00E94FA008FE00E9459018F
:100D300065E070E080E090E00E9493018FE00E9407
:100D40005901BC01990F880B990B0E941D0820E0E6
:100D500030EC4FE754E40E94A90720E030E040EA7D
:100D600050E40E94CD082DEC3CEC4CE45DE30E9485
:100D7000A40760E087FF61E087E00E94FA008090AE
:100D8000260190902701A0902801B090290181149C
:100D90009104A104B10409F438C00E94C501DC012A
:100DA000CB0188199909AA09BB09E0912401F091A6
:100DB00025013197E930F10540F5EF51F94F0C94D9
:100DC0009E07F406EA06F406F4060507F406EA06AA
:100DD000F406F40689389341A105B105B0F01092EC
:100DE00025011092240109C081319742A105B10566
:100DF00060F0F0922501E0922401109226011092F9
:100E0000270110922801109229010E94C5018090AB
:100E1000200190902101A0902201B090230168153B
:100E200079058A059B0548F0681979098A099B09A3
:100E3000613375478105910580F080911E01909185
:100E40001F010E944E030E94C50160932001709310
:100E5000210180932201909323010115110509F4CA
:100E60003ACF0E943C02882309F435CF0E9400004B
:100E700032CFE3E3F1E01382128288EE93E0A0E048
:100E8000B0E084839583A683B7838CE091E091835F
:100E9000808385EC90E09587848784EC90E0978749
:100EA000868780EC90E0918B808B81EC90E0938B37
:100EB000828B82EC90E0958B848B86EC90E0978B14
:100EC000868B118E128E138E148E0895F999FECF93
:100ED00092BD81BDF89A992780B50895262FF9997A
:100EE000FECF1FBA92BD81BD20BD0FB6F894FA9A0D
:100EF000F99A0FBE01960895A1E21A2EAA1BBB1BF8
:100F0000FD010DC0AA1FBB1FEE1FFF1FA217B307D5
:100F1000E407F50720F0A21BB30BE40BF50B661FEB
:100F2000771F881F991F1A9469F7609570958095AF
:100F300090959B01AC01BD01CF010895EE0FFF1FFD
:100F40000590F491E02D09940E94580808F481E07E
:100F500008950E94BD070C9493080E948C0858F0D5
:100F60000E94850840F029F45F3F29F00C947C082A
:100F700051110C94C7080C9482080E94A40868F3CD
:100F80009923B1F3552391F3951B550BBB27AA2742
:100F900062177307840738F09F5F5F4F220F331F7C
:100FA000441FAA1FA9F335D00E2E3AF0E0E832D044
:100FB00091505040E695001CCAF72BD0FE2F29D047
:100FC000660F771F881FBB1F261737074807AB0719
:100FD000B0E809F0BB0B802DBF01FF2793585F4F8E
:100FE0003AF09E3F510578F00C947C080C94C708A9
:100FF0005F3FE4F3983ED4F3869577956795B79570
:10100000F7959F5FC9F7880F911D9695879597F97A
:101010000895E1E0660F771F881FBB1F62177307F3
:101020008407BA0720F0621B730B840BBA0BEE1F08
:1010300088F7E0950895E89409C097FB3EF49095F1
:101040008095709561957F4F8F4F9F4F9923A9F0A1
:10105000F92F96E9BB279395F69587957795679530
:10106000B795F111F8CFFAF4BB0F11F460FF1BC074
:101070006F5F7F4F8F4F9F4F16C0882311F096E907
:1010800011C0772321F09EE8872F762F05C06623B5
:1010900071F096E8862F70E060E02AF09A95660F6E
:1010A000771F881FDAF7880F9695879597F9089527
:1010B000990F0008550FAA0BE0E8FEEF1616170669
:1010C000E807F907C0F012161306E407F50798F0D1
:1010D000621B730B840B950B39F40A2661F0232BEA
:1010E000242B252B21F408950A2609F4A140A69566
:1010F0008FEF811D811D089597F99F6780E870E04B
:1011000060E008959FEF80EC089500240A9416167D
:10111000170618060906089500240A9412161306E5
:10112000140605060895092E0394000C11F4882373
:1011300052F0BB0F40F4BF2B11F460FF04C06F5F8F
:101140007F4F8F4F9F4F089557FD9058440F551F65
:1011500059F05F3F71F04795880F97FB991F61F039
:101160009F3F79F087950895121613061406551FB0
:10117000F2CF4695F1DF08C0161617061806991F1C
:10118000F1CF86957105610508940895E894BB2711
:1011900066277727CB0197F908950E94E0080C9401
:1011A00093080E94850838F00E948C0820F095234F
:1011B00011F00C947C080C94820811240C94C7083C
:1011C0000E94A40870F3959FC1F3950F50E0551F3E
:1011D000629FF001729FBB27F00DB11D639FAA278C
:1011E000F00DB11DAA1F649F6627B00DA11D661FDB
:1011F000829F2227B00DA11D621F739FB00DA11DFC
:10120000621F839FA00D611D221F749F3327A00DB5
:10121000611D231F849F600D211D822F762F6A2F51
:1012200011249F5750409AF0F1F088234AF0EE0FB6
:10123000FF1FBB1F661F771F881F91505040A9F7E3
:101240009E3F510580F00C947C080C94C7085F3FCA
:10125000E4F3983ED4F3869577956795B795F7951F
:10126000E7959F5FC1F7FE2B880F911D9695879597
:0812700097F90895F894FFCFEF
:1012780003000200D101D101000000007202D20176
:0A128800FF01BF0230020E02220235
:00000001FF
